:020000040000FA
:10000000508700206D020000810200008302000082
:10001000850200008502000085020000000000004B
:10002000000000000000000000000000C502000009
:10003000850200000000000021030000E51D000013
:100040008502000085020000850200008502000094
:100050008502000085020000850200008502000084
:100060008502000085020000850200008502000074
:100070008502000085020000850200008502000064
:100080008502000085020000850200008502000054
:100090008502000085020000850200008502000044
:1000A0008502000085020000850200008502000034
:1000B0008502000085020000850200008502000024
:1000C0008502000085020000850200008502000014
:1000D0008502000085020000850200008502000004
:1000E0008502000000000000000000008502000002
:1000F00085020000850200008502000085020000E4
:1001000085020000850200008502000085020000D3
:1001100000000000000000008502000085020000D1
:1001200085020000850200008502000085020000B3
:1001300085020000850200008502000085020000A3
:1001400000000000000000000000000000000000AF
:100150008502000085020000850200008502000083
:10016000000000000000000000000000000000008F
:10017000000000000000000000000000000000007F
:10018000000000000000000000000000000000006F
:10019000000000000000000000000000000000005F
:1001A000000000000000000000000000000000004F
:1001B0008502000085020000850200008502000023
:1001C0008502000085020000850200008502000013
:1001D0008502000085020000850200008502000003
:1001E000850200008502000085020000000000007A
:1001F000000000008502000085020000850200006A
:1002000085020000850200000000000000000000E0
:1002100085020000850200008502000085020000C2
:1002200085020000850200008502000085020000B2
:1002300085020000850200008502000085020000A2
:100240008502000085020000850200008502000092
:100250008502000085020000850200008502000082
:100260008502000085020000850200004EF68850DD
:10027000CEF20000016841F47001016000F004B8A2
:10028000FEE7FEE7FEE70000DFF80CD000F080FBA1
:1002900000480047713A000050870020EFF31080BB
:1002A00072B67047EFF310807047EFF3108062B6BC
:1002B000704730BF704780F311887047EFF31180AB
:1002C000704700002C4B19680868B0E8F04F80F3C5
:1002D0000988BFF36F8F4FF0000080F311887047DB
:1002E0000000000008480068006880F308884FF0AC
:1002F000000080F3148862B661B6BFF34F8FBFF37E
:100300006F8F00DF00BF00BF08ED00E0DFF80C00DA
:10031000016841F470010160704700BF88ED00E0A2
:10032000EFF30980BFF36F8F134B1A681EF0100FA5
:1003300008BF20ED108A20E9F04F106009B44FF09B
:10034000400080F31188BFF34F8FBFF36F8F04F02D
:1003500069FC4FF0000080F3118809BC1968086837
:10036000B0E8F04F1EF0100F08BFB0EC108A80F319
:100370000988BFF36F8F704714000020EFF30580EA
:10038000704740EA01039B0703D009E008C9121F28
:1003900008C0042AFAD203E011F8013B00F8013B3F
:1003A000521EF9D27047D2B201E000F8012B491E6B
:1003B000FBD270470022F6E710B513460A46044602
:1003C0001946FFF7F0FF204610BD2DE9FE4F80468D
:1003D00081EA0300C00F0C46009021F0004123F099
:1003E0000045B8EB0200A94105D24046214690469F
:1003F0001C460B46024623F00040104347D0270D11
:10040000C7F30A00C3F30A510290401A0190402832
:100410006BDAC3F3130040F4801B0098924620B1BE
:100420000023D2EB030A63EB0B0B01985946C0F192
:100430004002504600F0C7F906460D465046594660
:10044000019A00F0CFF910EB08006141002487EA1F
:10045000115284EAE7731A4340D0009A62B3019ABA
:10046000012A4FEA075215DC001B61EB02014FF035
:10047000004202EA0752CDE90042001C41F580111A
:1004800032462B4600F006FA03B0BDE8F08F404636
:100490002146F9E7001B61EB0201001C41F58013C6
:1004A00000185B412018A2F5001747EB030140EA52
:1004B000D570B6196D4111E06D084FEA360645EA70
:1004C000C0754FEA0752001B61EB0201001C41F5A9
:1004D000801149084FEA30000019514132462B463D
:1004E00003B0BDE8F04F00F0C6B90098012240000B
:1004F0000023D0EB020263EBE073009821464FEA41
:10050000E074B8EB000061EB0401E9E783F000431D
:100510005BE781F0004158E72DE9FE4F81EA0304D3
:1005200004F0004421F0004100944FF0000B23F050
:10053000004350EA01045ED052EA03045BD0C3F3E7
:100540000A54C1F30A552C44A4F2F3340194A0FBDD
:100550000254C1F3130141F48011C3F3130343F4B4
:10056000801301FB024400FB034E840A970A44EA0D
:10057000815447EA8357A4FB076802958D0A05FB5F
:1005800007854FEA932C04FB0C542705029D4FEA84
:10059000065847EA1637B5EB08056EEB070C870ED1
:1005A000920E47EA811742EA8312A7FB0201B6EBDB
:1005B0000B0164EB00042B0D43EA0C335E1844EB93
:1005C0001C50DA465146E7FB0201C5F313044FEA1B
:1005D0000B3343EA14534FEA0432019C43EA060307
:1005E000A4F10C040294009CCDE900B400F052F98F
:1005F00003B0BDE8F08F00200146F9E72DE9F04D8A
:1006000081EA030404F0004B21F0004514464FF04A
:10061000000A23F0004150EA050220D054EA01020A
:100620001DD0C5F30A570246C5F31303C1F31300E7
:10063000C1F30A5640F4801543F48013A7EB060873
:10064000101BD64608F2FD3873EB050002D308F103
:10065000010801E092185B41B8F1000F03DA0020B5
:100660000146BDE8F08D00204FF480110646844617
:100670000EE0171B73EB050705D3121B63EB050395
:1006800006434CEA010C49084FEA300092185B41DE
:1006900050EA0107EDD152EA030012D082EA0400C9
:1006A00083EA0501084305D0101BAB4106D20122A5
:1006B000002306E000224FF0004302E06FF0010249
:1006C00053101AEB06004CEB085110EB0A0041EBFB
:1006D0000B01BDE8F04D00F0CEB800F0004230F064
:1006E00000400AD0C10D01F56071C0F3160042EA66
:1006F0000151C2084007114370470020014670476E
:1007000001F0004330B421F0004150EA010206D06C
:100710000A0DA2F56072C1F31301002A02DC30BC9D
:1007200000207047440F44EAC104C100E01830BC07
:1007300000EBC25000F068B830B50B46014600200F
:100740002022012409E021FA02F59D4205D303FA93
:1007500002F5491B04FA02F52844151EA2F1010214
:10076000F1DC30BD2DE9F05F0546002092469B4646
:1007700088460646814640241BE0284641464746B7
:10078000224600F017F953465A46C01A914110D339
:1007900011461846224600F016F82D1A67EB01089C
:1007A0004F4622460120002100F00DF817EB00090A
:1007B0004E41201EA4F10104DFDC484631462A46A2
:1007C0004346BDE8F09F202A04DB203A00FA02F1FC
:1007D000002070479140C2F1200320FA03F319432F
:1007E00090407047202A06DBCB17203A41FA02F0EE
:1007F00043EAE07306E041FA02F3D040C2F120027E
:1008000091400843194670470029A8BF7047401C13
:10081000490008BF20F00100704710B4B0FA80FC16
:1008200000FA0CF050EA010404BF10BC704749B153
:10083000CCF1200421FA04F411FA0CF118BF0121C3
:1008400021430843A3EB0C01CB1D4FEA00614FEAA3
:10085000102042BF002010BC704700EBC350104472
:100860000029A4BF10BC7047401C490008BF20F0FD
:10087000010010BC704710B5141E73F1000408DAB3
:10088000401C41F1000192185B411A4301D120F054
:10089000010010BD2DE9F04D92469B4611B1B1FA11
:1008A00081F202E0B0FA80F220329046FFF78BFF2F
:1008B00004460F4640EA0A0041EA0B0153465A46F5
:1008C000084313D0114653EA010019D0C8F1400281
:1008D000504600F06FF805460E46504659464246CF
:1008E000FFF771FF084305D0012004E02046394698
:1008F000BDE8F08D0020054346EAE0762C433743FF
:100900000A986305E40AA0EB08000022FD0A44EA05
:1009100047540A3002D500200146E9E701051019C5
:100920006941DDE9084500196941BDE8F04DA2E7DC
:10093000C1F30A52C1F3130140F2FF3341F48011B5
:100940009A4202DA00200146704740F233439A424D
:10095000A2F2334202DC524200F02CB8FFF733BF60
:1009600030B5041E71F1000404DB4FF00044404236
:1009700064EB0101141E73F1000405DB1C464FF00B
:100980000043524263EB0403994208BF904230BDDA
:10099000064C074D06E0E06840F0010394E80700CC
:1009A00098471034AC42F6D3FFF772FC04600000A5
:1009B00024600000202A04DB203A21FA02F0002102
:1009C000704721FA02F3D040C2F12002914008435F
:1009D0001946704730B58C1810F8012B12F00F0330
:1009E00001D110F8013B120906D110F8012B03E0E8
:1009F00010F8015B01F8015B5B1EF9D101E001F821
:100A0000013B521EFBD1A142E6D3002030BD08B508
:100A100000BF04F02BFD009000BF0A21684603F0E0
:100A2000F7FF00F077F8F8E710B52DED088B0446D6
:100A3000204600F0BBFD94ED170A10EE101A084690
:100A4000FFF74BFE41EC1B0BB0EE4B0AF0EE6B0ACE
:100A500001F006FEB0EE40AAF0EE60AA9FED160B84
:100A600053EC102B51EC1A0BFFF756FD41EC190B10
:100A7000FFF746FE08EE100A9FED110AB4EEC08A99
:100A8000F1EE10FA04DD9FED0E0A84ED0A0A0DE086
:100A90009FED0C0AB4EEC08AF1EE10FA04D29FED7D
:100AA000090A84ED0A0A01E084ED0A8A204600F072
:100AB0000BF8BDEC088B10BD0000000000002040CA
:100AC00000000042000000C270B50446204600F05D
:100AD0009DFD94ED0B0A9FED0D1AC0EE010A9FEDEE
:100AE0000C0A20EE800ABDEEC00A10EE105A94F8EF
:100AF0006400012804D16942204600F01DFF03E094
:100B00002946204600F018FF70BD0000000000429A
:100B10000080BB4510B50A480078012804D002289F
:100B200005D0032809D105E000F05EF806E000F0EA
:100B30000BF803E000F006F800E000BF00BF10BDB6
:100B40006C0800207047000010B52DED028B9FED62
:100B50001F0AB0EE408A9FED1D0AF0EE408A00F0B9
:100B600093F81B4890ED210ADFED1A0A80EE201A57
:100B7000B0EE418A90ED220ADFED160A80EE201ACF
:100B8000F0EE418AB0EE480A134800F0CFFEB0EE16
:100B9000480A124800F0CAFEB0EE680A104800F099
:100BA000C5FEB0EE680A0F4800F0C0FE0A48FFF725
:100BB0003BFF0A48FFF738FF0948FFF735FF0948B0
:100BC000FFF732FFBDEC028B10BD000000000000FB
:100BD0006C08002066665E406C060020EC06002073
:100BE0006C070020EC07002010B52DED028B9FED67
:100BF0001F0AB0EE408A9FED1D0AF0EE408A00F019
:100C00006FF81B4890ED150ADFED1A0A80EE201AE6
:100C1000B0EE418A90ED160ADFED160A80EE201A3A
:100C2000F0EE418AB0EE480A134800F0CDFEB0EE77
:100C3000480A124800F0C8FEB0EE680A104800F0FA
:100C4000C3FEB0EE680A0F4800F0BEFE0A48FFF788
:100C50003BFF0A48FFF738FF0948FFF735FF09480F
:100C6000FFF732FFBDEC028B10BD0000000000005A
:100C70006C08002066665E406C060020EC060020D2
:100C80006C070020EC070020044890ED1F0A80ED5F
:100C9000210A90ED200A80ED220A70476C0800209E
:100CA000084890ED1F1A31EE001A80ED1F1A90EDE2
:100CB000201A31EE201A80ED201A02200149087016
:100CC000704700006C080020044880ED130AC0ED56
:100CD000140A012001490870704700006C080020C8
:100CE000044890ED130A80ED150A90ED140A80ED8A
:100CF000160A70476C08002010B502460B4600200B
:100D0000002100BF02E0545C6040491C9942FAD3C4
:100D100010BD00002DE9F041044606AD95E8E00164
:100D200084F864109FED1D1ADFED1D0A9FED1D0A6A
:100D3000204600F0B7FC9FED190A84ED0B0A9FEDE9
:100D4000170A84ED090A9FED150A84ED0A0A9FED42
:100D5000141ADFED120A9FED140A04F1300000F0BE
:100D6000A1FC9FED0E0A5C3484ED000A9FED0B0A96
:100D700004ED020A9FED090A04ED010A0020A0809B
:100D8000E0802561E660A761C4F81480E261236217
:100D9000012060725C3CBDE8F081000000000000B2
:100DA0008FC2F53CCDCC4C3F9A99993E10B50021AD
:100DB000164800F084F8044604F0800008B100F002
:100DC0004DFB04F0400008B100F072FB04F010008D
:100DD00008B100F097FB04F0200008B100F0BCFB64
:100DE00004F0040008B100F0F9FC04F0080008B1B8
:100DF00000F01EFD04F0020008B100F043FD04F015
:100E0000010008B100F068FD10BD00000060024064
:100E1000014609B900207047087828B1486808B130
:100E2000087A08B90020F6E7087C28B1486908B1BB
:100E3000087E08B90020EEE7487A18B1C86808B9FA
:100E40000020E8E70120E6E70348006840F0404062
:100E5000014908607047000034EF00E002F0010330
:100E60001BB1D0F800340B4302E0D0F800348B43C0
:100E7000C0F8003402F002031BB1D0F820340B4359
:100E800002E0D0F820348B43C0F820347047C0F81B
:100E90001C147047D0F810240A43C0F8102470477F
:100EA00070B504460D46204601F020FB0646294653
:100EB000304600F051FA304600F0E4F970BD0246C9
:100EC00011B1D2F818047047D2F81404FBE702F00D
:100ED00001031BB1D0F808340B4302E0D0F808340A
:100EE0008B43C0F8083402F002031BB1D0F804347D
:100EF0000B4302E0D0F804348B43C0F8043402F012
:100F000004031BB1D0F80C340B4302E0D0F80C34CE
:100F10008B43C0F80C3402F4803323B1D0F8383559
:100F200043F0010303E0D0F8383523F00103C0F8A3
:100F300038357047F0B55F4D2D685F4E35405F4ED8
:100F4000B5421AD0002416E00125A5400D4085B118
:100F5000D0F8C45F67000326BE40B543C0F8C45F45
:100F6000D0F8C45F6700C2F34116BE403543C0F8F5
:100F7000C45F651CECB2082CE6DB02F001051DB174
:100F8000D0F800550D4302E0D0F800558D43C0F86D
:100F9000005502F002051DB1D0F804550D4302E0E2
:100FA000D0F804558D43C0F8045502F004051DB176
:100FB000D0F808550D4302E0D0F808558D43C0F82D
:100FC000085502F008051DB1D0F818550D4302E090
:100FD000D0F818558D43C0F81855364D2D68364E4B
:100FE0003540364EB5420BD002F010051DB1D0F899
:100FF0003C550D4302E0D0F83C558D43C0F83C55BC
:1010000003F001051DB1D0F80C550D4302E0D0F8F6
:101010000C558D43C0F80C5503F002051DB1D0F8F6
:1010200010550D4302E0D0F810558D43C0F810550F
:1010300003F004051DB1D0F814550D4302E0D0F8BB
:1010400014558D43C0F8145503F008051DB1D0F8B0
:101050001C550D4302E0D0F81C558D43C0F81C55BB
:10106000144D2D68144E3540144EB54217D003F47C
:1010700000751DB1D0F844550D4302E0D0F8445539
:101080008D43C0F8445503F440751DB1D0F8405568
:101090000D4302E0D0F840558D43C0F840551BB9D0
:1010A000D0F828550D4302E0D0F828558D43C0F8FC
:1010B0002855F0BD00E00F400000FF700000051053
:1010C00010B50146C1F307400F4BDB6E012484408D
:1010D000234033B1012303EB40030C4C54F82300AD
:1010E00003E04300094C54F82300C1F30722D0F871
:1010F0002C350F249440A34301F00F049440234364
:10110000C0F82C3510BD000000E00F40EC59000085
:101110000246002000EB81001058704730B50446AD
:101120000D46002229462046FFF798FE082301229B
:1011300029462046FFF7FEFE30BD30B504460D4679
:101140000823012229462046FFF7F4FE0122294602
:101150002046FFF783FE30BD30B504460D4602221F
:1011600029462046FFF77AFE092301222946204618
:10117000FFF7E0FE30BD30B504460D460222294699
:101180002046FFF76BFE0823012229462046FFF781
:10119000D1FE30BD30B504460D4602222946204618
:1011A000FFF75CFE0823012229462046FFF7C2FE16
:1011B00030BD30B504460D46022229462046FFF7D1
:1011C0004DFE0823012229462046FFF7B3FE30BD1D
:1011D000002303EB8103C2507047016A41F0100104
:1011E000016270470C4A12680C4B1A400C4B9A4231
:1011F00002D1C2680A43C260074A1268074B1A400C
:10120000084B9A4207D1826B42EA11328263026A2A
:1012100042F040020262704700E00F400000FF70A1
:1012200000000A100000051070B503460C46164673
:101230001846FFF7D2FF012E01D10F4A00E00F4AF6
:10124000142000FB0240401E02EB82018900B0FB2B
:10125000F1F0451EDD60D3F8C00F00F0010048B189
:1012600007482044401E0649B0FBF1F0451E45F0FA
:101270008000D86070BD0000801A0600A0860100C2
:1012800080473701042806D11949096841F48031A3
:10129000174A11602BE0052806D11549096841F469
:1012A0000031134A116022E0062806D1104909686E
:1012B00041F480210E4A116019E00F2808D14FF047
:1012C000E021096941F002014FF0E02211610EE0D6
:1012D00010280CD3A0F1100101F01F020121914050
:1012E000A0F110025209034B53F8222011607047FD
:1012F00024ED00E0385B000010B5FEF7D6FF08B122
:10130000012010BD0020FCE7034951F82010034ADA
:101310001143034A116070477C5A00000000FA052F
:101320000CED00E010B50A4683080A4C54F823304F
:1013300019688307DC0EFF23A34099438307DB0E64
:1013400002FA03F319438308024C54F8233019605E
:1013500010BD00009C5A000030B502460B4C2468BA
:101360000B4DAC420ED0094C2368002005E053F829
:101370002040074D45F82040401C9B28F7D3044CE3
:10138000024D2C60024C44F8221030BD08ED00E004
:10139000000400207CB505460C469FED100A8DED3B
:1013A000010A9FED0E0A8DED000AD4F801000190AC
:1013B000D4F805000090207830B9DDED000A9DEDED
:1013C000010AFFF781FC08E02078012805D1DDED56
:1013D000000A9DED010AFFF763FC7CBD00000000E0
:1013E00000BF0A2003F0E6FA034801F049FE024874
:1013F00001F077FEF5E70000900A002000BFC8204A
:1014000003F0D8FA04210948FFF782FE0028F6D13C
:1014100000BF04210548FFF77BFE0028F9D0F2EE5B
:10142000040AB2EE040AFFF73BFCE8E70040024082
:1014300000BF7F2280210848FFF7CAFE4FF4FA70F0
:1014400003F0B8FA802211460348FFF7C1FE4FF4BB
:10145000FA7003F0AFFAECE70060004070B580214D
:101460001148FFF714FD80210F48FFF751FE00F0EF
:101470008000C50940210C48FFF74AFE00F04000FB
:10148000840985EA040038B10848B0F86000401EBD
:101490000649A1F8600006E00448B0F86000401C6E
:1014A0000249A1F8600070BD006002406C06002097
:1014B00070B540211148FFF7EAFC80210F48FFF783
:1014C00027FE00F08000C50940210C48FFF720FEF0
:1014D00000F04000840985EA040038B10848B0F8FB
:1014E0006000401C0649A1F8600006E00448B0F81E
:1014F0006000401E0249A1F8600070BD006002401B
:101500006C06002070B510211148FFF7C0FC1021B7
:101510000F48FFF7FDFD00F01000050920210C48E1
:10152000FFF7F6FD00F02000440985EA040038B119
:101530000848B0F86000401E0649A1F8600006E0C7
:101540000448B0F86000401C0249A1F8600070BD7A
:1015500000600240EC06002070B520211148FFF722
:1015600096FC10210F48FFF7D3FD00F0100005098D
:1015700020210C48FFF7CCFD00F02000440985EA4B
:10158000040038B10848B0F86000401C0649A1F8D2
:10159000600006E00448B0F86000401E0249A1F86F
:1015A000600070BD00600240EC06002000B50146FE
:1015B00031F8600F00B24880B1F9020000EE100A65
:1015C000B8EEC00ADFED0F0A20EE200A9FED0E1ADA
:1015D000C0EE010A11ED030A30EE800A01ED030AA4
:1015E00011ED031AF0EE410A11ED021A6039B0EE66
:1015F000410A01F1300000F077F891ED130A81ED16
:10160000170A00BDDC0FC9400000C34400B5014605
:1016100031F8600F00B2488000200880B1F9020064
:1016200000EE100AB8EEC00ADFED1A0A20EE200A1A
:10163000DFED190A80EE201A01ED0F1A11ED0F1AD5
:10164000F0EE410A11ED0E1A6039B0EE410A08467B
:1016500000F04AF891ED070A81ED0B0A91ED0B0AB3
:10166000DFED0E0AB4EEE00AF1EE10FA04DD9FEDB4
:101670000B0A81ED0B0A0CE091ED0B0ADFED080A75
:10168000B4EEE00AF1EE10FA03D29FED050A81ED07
:101690000B0A00BDDB0FC940999979410000004257
:1016A000000000C2DFED0F1AC0ED051ADFED0D1AC4
:1016B000C0ED031ADFED0B1AC0ED041ADFED091AB5
:1016C000C0ED081ADFED071AC0ED061ADFED051AA6
:1016D000C0ED071A80ED000AC0ED010A80ED021A84
:1016E000704700000000000030EE601A80ED031A21
:1016F00090ED031AD0ED041A31EE611AD0ED001A04
:1017000021EE211AD0ED011A90ED032A01EE821A82
:10171000D0ED031A90ED042AF0EE002A42EEC21A30
:1017200090ED052A71EE821A90ED022A02EE211A3E
:10173000D0ED071A31EE211A80ED071A90ED041A48
:1017400080ED051A90ED031A80ED041A7047000031
:1017500010B501440B68094C234013430B6002F0A1
:10176000020323B1B0230B621B014B6204E08C2304
:101770000B6240F60C034B6210BD00000100F8FF45
:10178000425842F001024250704701440B6803F096
:10179000020313B153080B6101E0531E0B61704744
:1017A000012A03D183680B43836002E083688B4383
:1017B0008360704730B5044621F03F05281905685D
:1017C00005F0020505B1520803699B1A01F00105F5
:1017D0000DB1C36100E0836130BD000070B504212C
:1017E0001148FFF754FB04210F48FFF791FC00F06C
:1017F0000400850808210C48FFF78AFC00F0080067
:10180000C40885EA040038B10848B0F86000401EFA
:101810000649A1F8600006E00448B0F86000401CEA
:101820000249A1F8600070BD006002406C07002012
:1018300070B508211148FFF72AFB04210F48FFF774
:1018400067FC00F00400850808210C48FFF760FCE5
:1018500000F00800C40885EA040038B10848B0F870
:101860006000401C0649A1F8600006E00448B0F89A
:101870006000401E0249A1F8600070BD0060024097
:101880006C07002070B502211148FFF700FB022110
:101890000F48FFF73DFC00F00200450801210C480D
:1018A000FFF736FC00F0010485EA040038B109486E
:1018B000B0F86000401E0749A1F8600006E0054846
:1018C000B0F86000401C0349A1F8600070BD000042
:1018D00000600240EC07002070B501211148FFF7BD
:1018E000D6FA02210F48FFF713FC00F0020045086A
:1018F00001210C48FFF70CFC00F0010485EA04000C
:1019000038B10948B0F86000401C0749A1F86000F0
:1019100006E00548B0F86000401E0349A1F86000E9
:1019200070BD000000600240EC070020022180F83A
:10193000651080ED160A704770B504460D4645B92E
:101940000022D4E91E01FFF735FF204600F05EF8C3
:1019500017E0002D08DD204600F025F82A46D4E9DE
:101960001E01FFF727FF0CE0204600F00BF82E1EAB
:1019700001DB334600E073421A46D4E91E01FFF74B
:1019800019FF70BD10B5044614F8682F21786068FF
:10199000FFF71EFC237ADB43DAB2217AE068683C69
:1019A000FFF716FC10BD10B5044614F8683FDB4382
:1019B000DAB221786068FFF70BFC227AD1B2E068D6
:1019C000683CFFF705FC10BD012180F86510DFEDD4
:1019D0000D0AB4EEE00AF1EE10FA04DDDFED090ABB
:1019E000C0ED0A0A0DE0DFED080AB4EEE00AF1EE00
:1019F00010FA04D2DFED040AC0ED0A0A01E080ED1E
:101A00000A0A704700000042000000C210B50446F8
:101A100014F8683FDB43DAB221786068FFF7D8FB3F
:101A2000237ADB43DAB2217AE068683CFFF7D0FB27
:101A300010BD00002DE9FE4F05468A46A348006808
:101A4000A3490840A349884202D10020BDE8FE8F87
:101A5000C5F3841705F03800102805D1DFF8789217
:101A6000002600BF152748E005F03800302804D1D3
:101A700047F230594FF400163FE005F0380038289F
:101A800004D14FF400494FF4800636E005F03800E9
:101A900078BB1A2F01DC092F01DA0020D6E78F4826
:101AA00050F827904FF4401646F040768748C06FB4
:101AB00020F01C000190072F03DB019840F010007C
:101AC000019082490198C8674FF40020009005E01A
:101AD0000098401E0090009800B905E07B48006D1A
:101AE00000F480700028F3D000BF009828B90020CF
:101AF000ACE7FFE74FF00009002605F4605000282E
:101B000073D105F0380028B105F03800102801D055
:101B100000209BE7C5F302600290714800F03EFD93
:101B20006A49C03108606948D0F8B0006D4900EAE0
:101B3000010444F000446548B0300460093F6A493C
:101B4000029851F820005044401EB0FBFAF85F485C
:101B5000D0F8B00030435D49B0310860029800EB26
:101B6000C00000EB4000614901EBC00007EB4701FA
:101B700000EB810040685549C1F864015C48016888
:101B8000A8F1010041EA00205049C1F8640102981F
:101B900000EBC00000EB4000544901EBC00007EB34
:101BA000470150F821005249091F096801F400015A
:101BB00008434F49091F0860484600F0BDFC4FEA42
:101BC000500A504600F0EAFC4049C1F8C0000846FF
:101BD000D0F8600100F4000040B13C48B03000682B
:101BE00040F08040C1F8B00008E02BE04048001F02
:101BF000006840F400003549C1F860014FF4004B23
:101C000008E03B48001D006800F0010000B104E05E
:101C1000ABF1010BBBF1000FF3DC00BFBBF1000F18
:101C20000DD02A48B030046846F0010040F08050E2
:101C3000044344F000442548C0F8B0403CE04FF075
:101C4000000A39E0244800F0A9FC2949A4390860B9
:101C50001E48D0F8600120F400001C49C1F8600162
:101C60000846D0F8B0402348044044F000441748E8
:101C7000B0300460BAF1000F02D14FF000080AE062
:101C8000B9FBFAF8B8F1000F01D0A8F1010808F18A
:101C90000100B9FBF0FA504600F080FC1449A43969
:101CA00008600A48D0F8B04046EA8820044344F06F
:101CB00000440648B03004600448B030006820F4A6
:101CC00070000249C1F8B0005046BFE600E00F4086
:101CD0000000FF70000005100024F400085C000004
:101CE00040787D0100FC0FE0545E0000745C000051
:101CF00064E10F40FF0300EF0349096E21F4F01186
:101D00000143014A1166704700E00F4010B5002101
:101D1000C0F30722094B1A4402F0704242F00072ED
:101D2000C0F30723054C2344C3F3130342EA4312D1
:101D3000C3B242EA8302116010BD000000E60F400A
:101D400010B50121C0F30722094B1A4402F070427A
:101D500042F00072C0F30723054C2344C3F313037E
:101D600042EA4312C3B242EA8302116010BD00008E
:101D700000E60F4018B50121C0F30722184B1A44A2
:101D800002F0704242F00072C0F30723144C234467
:101D9000C3F3130342EA4312C3B242EA830211605F
:101DA0000021009102E00099491C0091009910293E
:101DB000F9D30021C0F30722094B1A4402F0704204
:101DC00042F00072C0F30723054C2344C3F313030E
:101DD00042EA4312C3B242EA8302116018BD000016
:101DE00000E50F4010B500BF402080F31188BFF31D
:101DF0004F8FBFF36F8F00BF03F03EFB18B14FF062
:101E000080500449086000BF002080F3118800BFA3
:101E100010BD000004ED00E01CB5184803210023AC
:101E20004FF40072CDE9001015A1194803F0DEFA55
:101E30001848022100238022CDE9001016A11A487B
:101E400003F0D4FA1948022100238022CDE90010C2
:101E500017A11B4803F0CAFA1A4802210023CA013D
:101E6000CDE9001018A11E4803F0C0FA002080F34D
:101E7000118800BFFFF740FA1CBD000000000020E1
:101E80005461736B5F41646A7573744361720000DF
:101E90000F0A0000040000205461736B5F4B6579EA
:101EA0004465746563740000FD13000008000020A1
:101EB0005461736B5F4C4544426C696E6B0000006B
:101EC000311400000C0000205461736B5F4A65748C
:101ED000736F6E696F50726F6365737300000000FB
:101EE000E113000010B57748FFF72AFF7548401C42
:101EF000FFF726FF7348801CFFF722FF7148C01CC4
:101F0000FFF71EFF6F48001DFFF71AFF6D48401DC9
:101F1000FFF716FF6B48801DFFF712FF6948C01DD1
:101F2000FFF70EFF67480830FFF70AFF65480930E2
:101F3000FFF706FF63480C30FFF702FF61480D30E2
:101F4000FFF7FEFE5F480E30FFF7FAFE80215E4885
:101F5000FFF7F3F80823022280215B48FEF7EAFF2F
:101F600008215A48FFF7E9F8082302221946574882
:101F7000FEF7E0FF04215548FFF7DFF808230222AF
:101F800004215248FEF7D6FF20214F48FFF7D5F82D
:101F900040214D48FFF7D1F810214B48FFF7CDF80D
:101FA00008214B48FFF7C9F802214948FFF7C5F857
:101FB00004214748FFF7C1F801214548FFF7BDF864
:101FC00008214448FFF7B9F880214348FFF7A6F8F5
:101FD00040214148FFF7A2F810213F48FFF79EF843
:101FE00020213D48FFF79AF804213B48FFF796F877
:101FF00008213948FFF792F802213748FFF78EF899
:1020000001213548FFF78AF804213448FFF786F8A4
:1020100002213248FFF782F801213048FFF77EF8AD
:102020002F492D48FEF73CFF60212F20FFF77AF95A
:1020300080212948FEF72EFF012280212648FEF745
:1020400046FF40212448FEF725FF01224021224877
:10205000FEF73DFF10212048FEF71CFF0122102152
:102060001D48FEF734FF20211B48FEF713FF012215
:1020700020211948FEF72BFF04211748FEF70AFF1D
:10208000012204211448FEF722FF08211248FEF71E
:1020900001FF012208211048FEF719FF02210E4816
:1020A000FEF7F8FE012202210B48FEF710FF012186
:1020B0000948FEF7EFFE012211460748FEF707FF29
:1020C00010BD0000000800F0006000400010064055
:1020D0000070024000600640006002400040024084
:1020E000AD0D000010B51448FFF710FE1248FFF7C1
:1020F00041FE1148FFF724FE012210491048FFF766
:1021000093F84FF4A0210E48FFF76CF840F6020058
:10211000FEF7D6FF40F60240FEF7D2FF04214FF053
:102120004020FFF728F808214FF04020FFF714F86F
:1021300004480549086010BD082000F0000E27077C
:1021400000800B4040D3C404048F0B4010B53648C8
:10215000FFF7F6FD3548FEF7B3FF3548FEF7B0FF51
:102160003448FEF7ADFF3448FEF7AAFF3348FEF7C8
:10217000A7FF0F213248FFF70DF810213148FFF774
:1021800009F80020FFF7B8FD002240212E48FFF794
:10219000DFFA002280212C48FFF7DAFA00224FF400
:1021A00080712948FFF7D4FA41F270724021264825
:1021B000FFF7EBFA41F2707280212348FFF7E5FA4E
:1021C00047F230524FF480711F48FFF7DEFA0022C9
:1021D00040211D48FFF7EEFA002241211A48FFF77F
:1021E000E9FA002282211848FFF7E4FA002283214D
:1021F0001548FFF7DFFA00224FF483711248FFF70A
:10220000D9FA40211048FFF7BBFA80210E48FFF7AA
:10221000B7FA4FF480710C48FFF7B2FA01224F2150
:102220000948FFF7BDFA10BD004000F006000500A8
:102230000604050006080500060C05000610090046
:1022400000500240001006400080024010B52948AE
:10225000FFF776FDC0214FF04020FEF7AAFF41F6C0
:102260000140FEF72DFF41F60100FEF729FF602334
:102270004FF4E1322049214800F0BDF810211F48F9
:1022800000F004F91D4800F0F6F81D491B4800F065
:1022900001F940213120FFF745F83120FEF7F2FF28
:1022A0001448801CFFF74CFD03211648FEF781FF00
:1022B0001548FEF705FF1548FEF702FF60234FF4AF
:1022C000E1320D49124800F096F81021104800F054
:1022D000DDF8002211460E4800F0D2F80D490C48F6
:1022E00000F0D8F840214920FFF71CF84920FEF7FC
:1022F000C9FF10BD021800F0000E270700E00040E3
:102300001923000000100640010409000100090023
:10231000000001405D23000038B501210D4800F0A8
:10232000C8F8044604F0100098B11021094800F0E4
:10233000ABF809E0074800F046F8C0B2009001226F
:102340006946054800F075FE024800F04EF8002886
:10235000F0D138BD00E00040900A002070B50121A6
:10236000134800F0A6F8054605F0100088B11021CA
:102370000F4800F089F807E00D4800F01BF8C4B2E0
:1023800021460B4800F029F8094800F02EF80028F3
:10239000F2D1074800F096F800F00800082805D1AF
:1023A000034800F08CF8024800F00DF870BD000002
:1023B00000000140014600BF886900F010000028BD
:1023C000FAD1086870470146886900F0100008B922
:1023D000086870474FF0FF30FBE700BF826902F0EA
:1023E0002002002AFAD10160704701468869012263
:1023F00022EA10107047F0B504460E4615461F46F7
:10240000204600F01EF8B6EB051F05D2206B40F009
:10241000200020636D0803E0206B20F02000206383
:10242000F000B0FBF5F0401C43089809606203F02F
:102430003F00A062E7620020A061204600F011F892
:10244000F0BD00BF816901F008010029FAD1C16A1D
:1024500021F01001C162016B40F20132914301632E
:102460007047C16A41F01001C162016B40F2013254
:10247000114301637047C16A21F01001C1627047C6
:1024800041EA02034363704741647047826B0A4329
:102490008263704770B504460D46204600F092F8FE
:1024A000064629463046FEF757FF3046FEF7EAFE5D
:1024B00070BD024609B1106C7047D06BFCE700217B
:1024C000416070470146486800F00F00704770B5E2
:1024D00006460C46154604E021783046FFF77DFF9E
:1024E000641C281EA5F10105F6D170BD30B5024669
:1024F0000C4B18240C4800680C4D28400C4DA84289
:1025000001D10C4B1B24002108E053F8310090420C
:1025100003D103EBC100406830BD491CA142F4D394
:102520000020F9E75458000000E00F400000FF7061
:1025300000000A1014590000F0B50146DFF858C039
:10254000DCF860C1CCF38923DFF84CC0DCF860C153
:10255000CCF30905DFF840C0DCF864C1CCF3042CEF
:102560000CF10106DFF830C0DCF864C10CF01F0C80
:102570000CF10107B1FBF7F15A09A3EB421401FB7F
:1025800005F001FB02FC00EB5C1001FB04FC00EB1E
:102590009C20B0FBF6F0F0BD00E00F4002460021A9
:1025A0000AE0074850F83100904204D3044800EB99
:1025B000C10040687047491C0629F2D30020F9E7A2
:1025C000245E000030B502460C4B08240C4800681D
:1025D0000C4D28400C4DA84201D10C4B00BF0021EE
:1025E00008E053F83100904203D103EBC10040688A
:1025F00030BD491CA142F4D30020F9E7885B0000FC
:1026000000E00F400000FF7000000A10C85B0000EF
:102610000FB4054B10B503A9044A029800F0B4FDAD
:1026200010BC5DF814FB0000D138000088000020C9
:1026300003B401984100009850EAC12018BF04205B
:102640004A0D18BF40F0010040F2FF72B2EB515F3B
:1026500008BF40F00200012808BF052002B0704703
:1026600070B59B482DED020B2DED068B079D25F0D7
:102670000044A04218DC9748844202DC0AD1069844
:1026800040B19DED060BBDEC068B02B0BDE870407D
:1026900000F0CEB9002DCCBF9FED8F0B9FED900BBE
:1026A000BDEC068B02B070BD8F48A04215DD8F488F
:1026B000A042D8BF4FF0FF3458DD9DED060B51EC22
:1026C000100BFFF7B5FF042808BF00F0BDF99DED22
:1026D000060BBDEC068B02B070BD9DED060B51ECF8
:1026E000100B01F0E8F8CDE9060181489FED828BDF
:1026F000A0423CDD8248A0421FDD00249FED82AB5A
:102700009DED060B53EC1A2B51EC100BFDF75DFE03
:102710009DED060B41EC190B53EC1A2B51EC100BF1
:10272000FDF7FAFE53EC182BFDF7F0FE53EC192BD6
:10273000FDF764FFCDE9060149E09DED060B01249C
:1027400053EC182B51EC100BFDF73FFE9DED060BE3
:1027500041EC190B53EC182B51EC100BFDF7D6FE86
:1027600053EC192BFDF74AFFCDE906012FE068482D
:10277000A0421FDD02249FED689B9DED060B53ECEC
:10278000192B51EC100BFDF7C7FE53EC182BFDF77E
:102790001CFE9DED060B41EC180B53EC192B51EC74
:1027A000100BFDF7B3FE53EC182BFDF727FFCDE917
:1027B00006010CE09DED060B032453EC102B9FED5E
:1027C000580B51EC100BFDF719FFCDE906019DEDFB
:1027D000060B53EC102B51EC100BFDF79DFE41EC5A
:1027E000180B53EC182BFDF797FE41EC190B4E48D4
:1027F0000621B0EE490AF0EE690A784400F09CF830
:1028000053EC182B51EC100BFDF786FE41EC180B26
:102810004648B0EE490AF0EE690A0521784400F016
:102820008BF853EC192B51EC100BFDF775FE41ECB6
:10283000100B51EC180B53EC102B002C0EDAFDF79B
:10284000C4FD9DED061B53EC112BFDF765FE9DEDC0
:10285000061B53EC112BFDF75CFE35E0FDF7B5FDD3
:102860009DED061B53EC112BFDF756FE41EC100BB2
:102870002F48784400EBC40090ED001B51EC100B86
:1028800053EC112BFDF742FE9DED061B53EC112B73
:10289000FDF73CFE41EC100B2648784400EBC400E9
:1028A00090ED001B51EC100B53EC112BFDF731FE9A
:1028B00041EC100B002DA2BFBDEC068B02B070BD29
:1028C00051EC100B81F0004141EC100B01E70000CE
:1028D000000010440000F07F182D4454FB21F93F04
:1028E000182D4454FB21F9BF0000DC3F0000203EBE
:1028F0000000F33F00000000000000000000F03F77
:102900000000E63F00000000000000000000004062
:102910000080034000000000000000000000F83FBD
:10292000000000000000F0BFEA360000A036000002
:102930002A360000E235000070B504462DED028B0A
:102940004D1E00EBC500B0EE408AF0EE608A90EDBF
:10295000000B35F0060017D053EC182B51EC100B80
:10296000FDF7DAFD41EC100B6D1E04EBC50090ED98
:10297000001B51EC100B53EC112BFDF726FD41EC25
:10298000100B35F00600E7D1022D36D0042D1CD0F7
:10299000062D1CBFBDEC028B70BD53EC182B51EC07
:1029A000100BFDF7B9FD94ED0A1B53EC112BFDF74D
:1029B0000CFD53EC182BFDF7AFFD94ED081B53EC09
:1029C000112BFDF702FD41EC100B53EC182B51ECD1
:1029D000100BFDF7A1FD94ED061B53EC112BFDF739
:1029E000F4FC53EC182BFDF797FD94ED040B53EC1E
:1029F000102BFDF7EAFC41EC100B53EC182B51ECBB
:102A0000100BFDF789FD94ED021B53EC112BFDF724
:102A1000DCFC53EC182BFDF77FFD94ED001B53EC11
:102A2000112BFDF7D2FCBDEC028B41EC100B70BDFD
:102A300010B553EC102B51EC100BFDF7C6FC41EC1C
:102A4000100B10BD000000009FED050B10B553ECFE
:102A5000102B51EC100BFDF75FFD41EC100B10BD7E
:102A6000000000000000001002E008C8121F08C1AA
:102A7000002AFAD170477047002001E001C1121FFF
:102A8000002AFBD1704700002DE9FF5F82B00021D2
:102A9000DDE90430020DDDF840B0034318D044F600
:102AA0001050A2F2FF3242431514119801281FD092
:102AB000A5EB0B00401C5FEA000A4FF000064E4FEA
:102AC000DFF83891B046504615D5CAF1000413E03E
:102AD000119801244AA3012801D16FEA0B01029841
:102AE000119AC0E90031C0E9024206B0BDE8F09F8A
:102AF000CBF10000DFE704460021404A491842EBD1
:102B00000450CDE9001012E0E00707D032463B4602
:102B100040464946FDF700FD8046894632463B4621
:102B200010461946FDF7F8FC06460F466410002CC7
:102B3000EAD1DDE90401DDE90023BAF1000F06DA8C
:102B4000FDF7EAFC42464B46FDF7E6FC05E0FDF7E3
:102B500055FD42464B46FDF751FD04460E46002208
:102B6000284BFDF7FDFE03D84FF0FF30014607E08C
:102B70000022254B20463146FDF727FCFDF7D8FE05
:102B8000102409E0002C0ADB0A220023FDF7EAFDED
:102B9000039B30321A55641E50EA0102F2D1641CC4
:102BA000039AC4F111031444119A012A03D001229B
:102BB00008430DD10AE0084304D000204FF0110B68
:102BC000119072E7A3EB0B056D1E0DE05B4504DD74
:102BD0004FF0000205F1010504E003DA4FF00002B6
:102BE000A5F10105002AECD002981199C0E9023143
:102BF000C0E9004579E70000000014400000F03F04
:102C0000300000000000F0430000E03F01460A7978
:102C100001F1180050F8220008B901207047002087
:102C2000FCE730B503460C460025184600F0B9F91C
:102C300078B9D96A186A405C2070002083F83000A7
:102C4000D86A401C596AB0FBF1F201FB1200D8624D
:102C50000125284630BD2DE9F04304468846174635
:102C60000025E66A204600F09CF910B10020BDE87E
:102C7000F08306E06D1C701C616AB0FBF1F201FB91
:102C80001206206A805D0A2802D0A06AB042F1D103
:102C9000A06AB04203D1002088F80000E7E76D1C6D
:102CA000BD420AD93A464146204600F01DFE814603
:102CB000E91B204600F094F905E02A4641462046EB
:102CC00000F012FE81464846D1E700002DE9FF5F83
:102CD0000446206C03900026E76A0025AA460020DF
:102CE0000290E06B407A40B1E06BC0689F49884237
:102CF00001D1012002E0022000E000200190D4E98F
:102D00000F01007810B1E06B007A00E00020014470
:102D1000E06B007C10B1E06B007E00E0002001441D
:102D2000019801EB000A204600F047F9504503D214
:102D3000002004B0BDE8F09F206C38B9E06B007C47
:102D400020B98B48FFF764FC0020F2E74FF0000841
:102D50001DE0206AC15DE06B406810F80800814208
:102D60000AD1781C616AB0FBF1F201FB120708F18D
:102D7000010000F0FF080AE0A7EB0800401C616AB0
:102D8000B0FBF1F201FB12074FF00008761CA06ABD
:102D9000B84203D0E06B007A4045DADCE06B007AA1
:102DA000404505DD3146204600F01AF90020C0E715
:102DB000E06B007A381A616AB0FBF1F201FB12078E
:102DC000206C38B9E06B007C20B96A48FFF720FC22
:102DD0000020AEE7E06B007AC11903980844616AED
:102DE000B0FBF1F201FB1205DDE90201084402909B
:102DF0004FF000091FE0206A415DE06B406910F868
:102E0000090081420AD1681C616AB0FBF1F201FB42
:102E1000120509F1010000F0FF090CE0A5EB090023
:102E2000401C616AB0FBF1F201FB12054FF0000992
:102E30000298401C0290A06AA84203D0E06B007E7A
:102E40004845D8DCE06B007E48450BDD002161641D
:102E5000204600F0B2F801460090204600F0C0F88D
:102E6000002066E7E06B007E281A616AB0FBF1F291
:102E700001FB1205206C30B3E06B007C18B300201E
:102E80000090009019E000982844616AB0FBF1F2CC
:102E900001FB1200216A095CE06B42690098105C3A
:102EA000814206D056443146204600F099F8002071
:102EB0003FE70098401CC0B20090E06B017E009894
:102EC0008142E0DC00BF3146204600F089F8E06B2B
:102ED000017A204600F084F8616C2046029A00F0E6
:102EE00003FD2046019900F07BF8E06B017E20464F
:102EF00000F076F8E06B407A08B9012019E7D4E9D0
:102F00000F31606CDA6890478346E06B007C50B903
:102F1000206A405D584527D056443146204600F08F
:102F20005FF8002005E7E06B407E50B1206A405D0D
:102F3000584519D056443146204600F051F800203B
:102F4000F7E6E06B007E2844616AB0FBF1F201FB1A
:102F50001200216A085C584506D056443146204686
:102F600000F03EF80020E4E60120E2E6F90C000063
:102F7000185F0000705F000090F8301081B9816A1E
:102F8000491C426AB1FBF2F302FB13118162D0E9E2
:102F90000A12914201D1012100E0002180F8301095
:102FA0007047014691F8300028B9D1E90A029042F1
:102FB00001D1012070470020FCE70146486A91F8E2
:102FC000302062B9D1E90A239A4203D3D1E90A2316
:102FD000D01A04E0CB6A4A6AD21A8B6AD0187047BA
:102FE00070B506460C46002506E0304600F008F8AD
:102FF00000B903E0681CC5B2A542F6D300BF70BD9E
:1030000030B5044600252046FFF7CBFF18B920460F
:1030100000F003F80125284630BD002180F830106B
:10302000C16A491C426AB1FBF2F302FB1311C1628F
:1030300070472DE9F04104460D46164637464FF0DD
:10304000000894F8300008B1BDE8F081206A00B9AA
:10305000FAE707E015F80810204600F007F87F1E91
:1030600008F10108002FF5D100BFEDE730B50446A7
:103070000D46A16A206A45542046FFF77DFF30BD0A
:1030800030B5C1B0044600254FF4807101A8FDF7AA
:1030900091F92046FFF785FF08B141B030BD94F8A3
:1030A0003100012809D102E0204600F043F8204613
:1030B000FFF777FF0028F7D011E094F831000228DD
:1030C0000CD1C20101A92046FFF7C5FD054635B167
:1030D000606B20B101A8616B884700E0DDE700BFAD
:1030E000DBE710B50446607900B110BD2046FFF75C
:1030F0008DFDA8B9237904F1180050F82320103869
:1031000050F82310204600F031F80021227904F114
:10311000180040F822102079C0F10100207106E06B
:103120002079012803D1A06908B90020207100BFCF
:10313000DBE7000070B504460025E06BFDF768FE94
:1031400020B90948FFF764FA002070BD2046FFF758
:10315000BDFD0546012D05D12046D4E91112904749
:103160000120F2E70020F0E7C05F000070B50446E0
:103170000D46164601206071324629462068FFF749
:10318000A6F90020607170BD2DE9FF4F95B09B46F8
:103190008946064600250FE2252877D100242746D8
:1031A000F84A0121059400E0044316F8013F203B52
:1031B00001FA03F01042F7D130782A2811D06FF0CD
:1031C0002F033078A0F13002092A16D8059A44F06E
:1031D000020402EB820203EB42021044761C0590CB
:1031E000EFE759F8042B0592002A03DA504244F421
:1031F0000054059044F00204761C30782E2816D135
:1032000016F8010F44F004042A280DD06FF02F02A5
:103210003078A0F13003092B09D807EB870302EBC4
:103220004303C718761CF3E759F8047B761C307803
:103230006C280FD006DC4C2817D068280DD06A28DF
:1032400014D104E0742810D07A280FD10DE044F492
:1032500000140AE044F4801401E044F4401472784D
:10326000824202D104F58014761C761C30786628E0
:103270000BD013DC582877D009DC002875D04528FE
:10328000F6D04628F4D047281AD19DE118E06328EB
:1032900035D0642879D0652812D195E1702873D093
:1032A00008DC6728F1D069286FD06E280DD06F2810
:1032B00006D1B5E073282CD0752875D0782874D045
:1032C0005A46179990476D1C75E1C4F302500228C5
:1032D00009D003280DD0D9F8001004280DD00D60B6
:1032E00009F1040967E1D9F80010EA17C1E90052B1
:1032F000F6E7D9F800100D80F2E70D70F0E719F845
:10330000041B8DF8001000208DF80100EA46012012
:1033100003E059F804AB4FF0FF3061074FF00001B4
:1033200002D40DE008F101018846B9420FDA804568
:10333000F8DB1AF808100029F4D108E008F10101BF
:1033400088468142FADB1AF808100029F6D1059860
:103350005B46A0EB080721463846179A00F094FA1E
:10336000284400EB080507E04DE029E10DE01AF8DC
:10337000010B5A4617999047B8F10108F7D25B46FE
:1033800021463846179A13E142E00A220092C4F31C
:1033900002524FF0000A022A08D059F804CB032A3F
:1033A0004FEAEC710AD00DE029E02AE009F10701AB
:1033B00021F00702F2E802C1914609E00FFA8CFC05
:1033C0004FEAEC71042A03D14FFA8CFC4FEAEC71FE
:1033D000002907DA0A460021DCF1000C61EB02014A
:1033E0002D2202E0220504D52B228DF80420012293
:1033F00003E0E20701D02022F7E7904659E00A21D6
:1034000002E010220DE010214FF0000A00910BE0C5
:1034100010224FF0000A44F004040827009203E051
:1034200008224FF0000A0092C4F30252022A05D08B
:1034300059F804CB0021032A08D009E009F107015B
:1034400021F00702F2E802C1914605E01FFA8CFC68
:10345000042A01D10CF0FF0C4FF00008220728D5F8
:10346000702806D0009B83F0100353EA0A0305D0AE
:103470000EE040228DF80420012208E05CEA0102FF
:1034800006D030228DF804208DF8050002229046E7
:10349000009B83F0080353EA0A030AD15CEA0102A5
:1034A00001D1620705D530228DF804204FF00108C4
:1034B0007F1E582804D034A003900EA802900DE07F
:1034C00036A0F9E753466046009AFDF74BF984466B
:1034D0000398825C0298401E029002705CEA010030
:1034E000F0D1029806A9081A00F1200A600702D557
:1034F00024F4803400E00127574502DDA7EB0A00E1
:1035000000E0002000EB0A01009005984144401AB9
:103510000590E00306D45B462146179A059800F013
:10352000B3F90544002706E001A85A46C05D179983
:1035300090476D1C7F1C4745F6DBE0030CD55B46CE
:103540002146179A059800F09FF9054404E03020C1
:103550005A46179990476D1C0099481E0090002903
:10356000F5DC08E0029802995A460078491C02915D
:10357000179990476D1CBAF10001AAF1010AF1DC1C
:1035800065E1000009280100303132333435363727
:10359000383961626364656600000000303132339F
:1035A000343536373839414243444546000000003F
:1035B00000F058F90544761C307800287FF4ECAD13
:1035C00019B02846BDE8F08F620700D4062709F13C
:1035D000070222F0070CFCE80223E14603F0004852
:1035E0005FEA080C02D00FF2702C0DE05FEA045C79
:1035F00002D50FF2682C07E05FEAC47C02D00FF21C
:10360000602C01E0AFF2700C4FF0FF3823F0004364
:10361000CDF850C065280CD006DC452809D04628D6
:103620001DD047283DD13DE0662818D067287ED1BF
:1036300038E00021112F01DB112000E0781CCDE9DA
:10364000000106A90EA8FFF71FFADDE90F010E9A87
:1036500003910021009207F1010A04914DE04FF01F
:1036600000400097CDE9011006A90EA8FFF70CFA5B
:10367000DDE90F0203920E9B11990022DDF80CA0E8
:103680000093049211B9791C00EB010AB7EB0A0010
:1036900004D4C0F1FF3007F1010A0490AAEB07003F
:1036A000019044E0012F00DA01270021112F01DDF4
:1036B000112000E03846CDE9000106A90EA8FFF769
:1036C000E3F9DDE90F010E9A0391002104910092C4
:1036D000BA4621070CD40399514500DA8A46BAF15B
:1036E000010F05DD009AAAF10101515C302908D0D3
:1036F000B84202DA10F1040F06DA0121CDE9011017
:1037000015E0AAF10101E9E7002805DC049901446C
:103710000491AAEB000102E0411C514500DD8A46FC
:103720000499401A401C01904FF00040029020077D
:1037300004D40198504501DBCDF8048000208DF8B9
:103740004F0002980DF14F07B0F1004F25D02B200C
:103750000E9002984FF0020800280CDA40420290C6
:103760002D200E9007E00A210298FCF7E5FF30318A
:10377000029007F8011DB8F10001A8F10108F2DC80
:1037800002980028EFD1791E0E980870307800F06A
:10379000200040F0450007F8020D12A8C01B00F100
:1037A00007081498007800B1012000EB0A01019885
:1037B00001EBE07105984144401A401E0590E0037A
:1037C00006D45B462146179A059800F05DF805443B
:1037D0001498007818B15A46179990476D1CE00369
:1037E00024D55B462146179A059800F04DF805440C
:1037F0001CE00498002807DBDDE90301884203DDB3
:103800000098405C179901E0179930205A4690477C
:10381000049805F10105401C04900198401E019098
:1038200004D12E205A46179990476D1CBAF1000119
:10383000AAF1010ADDDC05E017F8010B5A461799D9
:1038400090476D1CB8F10001A8F10108F4DC5B465B
:103850002146179A0598ABE62D0000002B000000CA
:10386000200000002DE9F041044600251E461746C1
:10387000880404D405E039462020B0476D1C641E3E
:10388000F9D52846BDE8F0812DE9F0410446002530
:103890001E469046C80301D5302700E02027880443
:1038A00004D505E041463846B0476D1C641EF9D585
:1038B0002846BDE8F08182B0CDE9000121F000404A
:1038C00001909DED000B02B051EC100B7047000011
:1038D00070B504460D46E1B20248FEF77EFD204673
:1038E00070BD0000000001402DE9F04105460E4684
:1038F0001746B8460024286A10B90020BDE8F081B8
:1039000008E031192846FFF78CF900B905E0A8F165
:103910000108641CB8F1000FF3D100BF2046EDE7A9
:103920002DE9F05F04468B4615461E460AAF97E820
:1039300080070CB9BDE8F09F002009E0264951F846
:10394000201019B9244941F8204003E0411CC8B2B5
:103950000628F3DB00BFC4F800B03DB136B12562E4
:10396000666231462846FCF725FD02E00020206211
:1039700060620020A062E06284F8300057B1B8F1C4
:10398000000F07D0A760C4F8108041463846FCF706
:1039900011FD02E00020A06020610020A061B9F1CB
:1039A000000F0BD0BAF1000F08D0C4F80C90C4F887
:1039B00014A051464846FCF7FDFC02E00021E160FE
:1039C00061610021E161002020716071012084F8B3
:1039D000310000BFAEE70000388600202DE9F0413D
:1039E00004460E4615461F46DDF8188084F8385008
:1039F00066642764C4F84880012D03D10449204639
:103A000000F008F8012084F83100BDE8F0810000E2
:103A1000605E000070B505460C462046FDF7F8F9DB
:103A200010B904A0FEF7F4FDEC63012085F838001E
:103A300070BD00005B6572726F7220205D2073653F
:103A400074207061636B61676520706172736520BB
:103A50006572726F723A7061636B61676520666F41
:103A6000726D617420696E636F72726563742E008B
:103A70001FB536493648FDF7DDFF0320FDF744FC4E
:103A8000FDF7E2F9FEF72EFAFEF7E0FBFEF72AFB60
:103A9000FEF75CFB40202F492F4BCDE9003083001F
:103AA0002E4ACDE902102E492E48FFF739FF2E4845
:103AB000092301222D4900902A48FFF78FFF2C4946
:103AC0002848FFF7A7FF40202A492022CDE900120D
:103AD0008323294ACDE9021000212848FDF71AF96D
:103AE000082027491022234BCDE90032CDE90210EE
:103AF0008223214A00212348FDF70CF904202049A4
:103B00000222CDE9001241231B4ACDE90210012116
:103B10001D48FDF7FFF808201C490122184BCDE98C
:103B20000032CDE902104023134A01211848FDF765
:103B3000F1F8DFED180A9FED170AFDF7C5F8FEF75B
:103B40006BF901F01DF800BFFEE70000000E27072B
:103B5000400500F1400900200009002080090020F4
:103B600000E00040900A002095130000800A002029
:103B70003858000000600040008002406C060020C1
:103B800000700240EC0600206C0700200060064038
:103B9000EC070020000000002DE9F04105460E462C
:103BA0001648076816480068001D00F091FD681C63
:103BB00038B936B112480168091D124800F0D8FD25
:103BC0001AE07C190E4800684460BC4207D20C48D9
:103BD0000168091D0C48006800F0B0FD0CE00848C1
:103BE0000168091D0948006800F0A8FD0848006840
:103BF000844201D206480460BDE8F081280000201C
:103C000014000020FC0D00201C00002018000020E3
:103C10004400002010B5044600F0B6FD22480068BC
:103C2000401C214908602148006840B91F480460D1
:103C30000846006801280DD100F0BCF90AE01C48D4
:103C4000006838B919480068C06AE16A884201D83A
:103C50001648046017480068401C16490860164959
:103C6000E06A0968884202D91349E06A0860E16A9B
:103C700001EB8101114A02EB8100211D00F078FD6A
:103C800000F0ACFD0A48006868B108480068C06AE6
:103C9000E16A884207D24FF0805009490860BFF3BB
:103CA0004F8FBFF36F8F10BD240000201400002041
:103CB00030000020400000202C0000202C0B0020B1
:103CC00004ED00E010B500F05FFD10480068D0B9C9
:103CD0000F4800F023FD0F4800F020FD0C480E496E
:103CE00008600C480D49086000220C210F2001F0EB
:103CF000A3F8064908600846006820B108A10348F7
:103D0000006800F01BFE00F069FD10BD58000020A7
:103D1000100E0020240E002050000020540000202F
:103D2000546D72510000000010B516E000F02CFD3B
:103D30000C48C068C468201D00F0CAFC0A4800682E
:103D4000401E0949086009480068401E074908608C
:103D500000F044FD204600F055F8044800680028B3
:103D6000E4D110BDE80D0020240000202000002038
:103D700070B504460D46206C70B1216CE0680844B3
:103D8000E0606168E068884201D32068E06028460E
:103D9000226CE168FCF7F5FA70BD2DE9F0410446AC
:103DA0000F4615464FF00008A66B206C28B37DB96E
:103DB0003946226CA068FCF7E4FA216CA06808443C
:103DC000A060D4E90110884217D32068A06014E0F5
:103DD0003946226CE068FCF7D4FA216CE068401A9E
:103DE000E0602168E068884203D2216C6068401A74
:103DF000E060022D01D106B1761E701CA063404622
:103E0000BDE8F08110B50446206B00F005FD2046AA
:103E100000F002FD10BD00000146084A1268126859
:103E20000AB9012200E000220A600A6822B9034AA6
:103E30001268D268106800E000207047500000202F
:103E400030B54FF4F043174800F007042CB1C01D03
:103E500020F00700134C041B1B1B0246124C22606F
:103E60000024114D6C60D018083820F007000F4C6A
:103E7000206000240D4D2D686C600C4D2D682C6069
:103E80001146441A4C60094C24680C60084D4C687B
:103E90002C60084D4C682C604FF00044064D2C609F
:103EA00030BD0000380E0020700000207800002097
:103EB000800000207C0000208400002000BFFFF76D
:103EC00033FF064800680128F9D94FF080500449B3
:103ED0000860BFF34F8FBFF36F8FF0E72C0B00200C
:103EE00004ED00E02DE9F04106460D4617469846E0
:103EF000069C0DB9246000E02760E663256401217B
:103F0000204600F0C5FF0020A064BDE8F0812DE947
:103F1000FF5F81460E469246DDE90E7B109CAAF1BA
:103F20000100216B01EB800828F0070808F007006A
:103F300008B9012000E0002050B900BF402080F304
:103F40001188BFF34F8FBFF36F8F00BF00BFFEE735
:103F5000002507E0715D04F134004155705D00B942
:103F600002E06D1C202DF5D300BF00215320015528
:103F7000202F00D31F27E762201D00F0DCFB04F197
:103F8000180000F0D8FB2461C7F12000A061646232
:103F90000020606584F8580049464046039A00F0C6
:103FA00081FB2060BBF1000F01D0CBF80040BDE8E1
:103FB000FF9F000010B5002407E004EB84010F4AC6
:103FC00002EB810000F0AAFB641C202CF5D30C4806
:103FD00000F0A4FB0B4800F0A1FB0B4800F09EFB97
:103FE0000A4800F09BFB0A4800F098FB0448094986
:103FF000086004480849086010BD00002C0B002030
:10400000AC0D0020C00D0020D40D0020E80D0020D4
:10401000FC0D0020180000201C00002010B50146F7
:10402000164800E0006803688B42FBD302464368F1
:1040300013448B4204D143684C68234443600146D7
:104040000A464B6813440468A34211D10C4C036820
:104050002468A34208D04B680468646823444B601A
:1040600003681B680B6005E0054B1B680B6001E0F3
:1040700003680B60884200D0016010BD7000002012
:10408000780000202DE9F04104460D4616461F46F3
:104090004FF0000865602461B5420CD8F01BA1699F
:1040A000884202D34FF0010811E0211D0948006841
:1040B00000F044FB0BE0BE4204D2BD4202D34FF0FD
:1040C000010804E0211D0448006800F037FB404669
:1040D000BDE8F081540000205000002070B5054676
:1040E00000F052FBA86B08B9012400E0002400F0A6
:1040F00075FB204670BD70B5054600F045FBA86B0A
:10410000E96B884201D1012400E0002400F066FB45
:10411000204670BD2DE9F3410D460098846C0027C0
:1041200054B900BF402080F31188BFF34F8FBFF315
:104130006F8F00BF00BFFEE7A06BE16B884201D22A
:10414000012000E0002050B900BF402080F311881A
:10415000BFF34F8FBFF36F8F00BF00BFFEE7A06BB1
:10416000E16B88421BD294F945602A466946204695
:10417000FFF713FE0746701C60B9606A08B901209A
:1041800000E0002050B904F1240001F017FA28B132
:10419000012703E0701C40B284F8450000BF384698
:1041A000BDE8FC81F8B505460F4616480068C068B2
:1041B000C468201D00F08CFAE06901281DD1A069B7
:1041C00041192B463A462046FFF75CFFA8B1002074
:1041D00003462A4601460090204601F0E9FA0646C9
:1041E00056B900BF402080F31188BFF34F8FBFF353
:1041F0006F8F00BF00BFFEE700BF2046616A88479F
:10420000F8BD00005000002070B586B06AE0039849
:10421000002867DB059C606908B9012000E00020E8
:1042200010B9201D00F054FA02A800F0BBF80546B2
:1042300003980A2854D2DFE800F009050731334F0C
:104240000608323400BF00BF00BF00BF0498A26957
:10425000811803462A462046FFF714FFE8B120469E
:10426000616A8847E069012817D10020009004980E
:10427000A169421800231946204601F099FA064622
:1042800056B900BF402080F31188BFF34F8FBFF3B2
:104290006F8F00BF00BFFEE700BF22E000BF20E03D
:1042A00000BF0498A061A06908B1012000E00020CF
:1042B00050B900BF402080F31188BFF34F8FBFF388
:1042C0006F8F00BF00BFFEE7A06941192B462A4649
:1042D0002046FFF7D7FE04E0204600F09DFA00E0FC
:1042E00000BF00BF002203A90348006800F084FF5C
:1042F00000288CD106B070BD58000020F8B50546E6
:104300000C4600F087FC684600F04CF80646009822
:1043100020BB44B9B54206D801F09CF93146284685
:10432000FFF740FF1CE03CB10E480068006808B988
:10433000012000E000200446A91B22460A4800682C
:1043400000F012FB01F086F950B94FF08050074998
:104350000860BFF34F8FBFF36F8F01E001F07AF970
:10436000F8BD0000540000205800002004ED00E0DB
:104370000A490968096809B9012100E0002121B151
:104380004FF0FF31064A116006E004490968C96828
:10439000C868034A41681160704700001800002097
:1043A0004400002070B5044601F060F80546074857
:1043B0000068854204D200F00BF80120206001E083
:1043C0000020206001480560284670BD6000002084
:1043D0002DE9F84332E024480068C06805682248A7
:1043E0000068C068C468201D00F072F92046616A48
:1043F0008847E069012821D1A0694619AE4207D952
:1044000066602461211D1848006800F097F915E0E6
:10441000002003462A4601460090204601F0C8F9D4
:10442000074657B900BF402080F31188BFF34F8F74
:10443000BFF36F8F00BF00BFFEE700BF0A480068F0
:10444000006808B9012000E000200028C3D0064819
:10445000D0F8008005480068034908600348C0F8A8
:104460000080BDE8F88300005000002054000020C8
:104470000E480068401C08B9012000E0002050B937
:1044800000BF402080F31188BFF34F8FBFF36F8FC1
:1044900000BF00BFFEE700BF402080F31188BFF3DC
:1044A0004F8FBFF36F8F00BF00BFFEE76400002097
:1044B00008B500BF6846FFF7AFFC044620460099E8
:1044C000FFF71CFFFFF7A0FEF4E770B5044600F00D
:1044D0005BF994F945501AE0A06C38B100212046F0
:1044E000FFF718FE88B100F009FB0EE0606A08B91A
:1044F000012000E0002038B904F1240001F05EF84A
:1045000018B100F0FBFA00E003E0681E45B2002D90
:10451000E2DC00BFFF2084F8450000F05FF900F006
:1045200033F994F9445010E0206908B9012000E003
:10453000002048B904F1100001F040F808B100F083
:10454000DDFA681E45B200E001E0002DECDC00BFA2
:10455000FF2084F8440000F041F970BD2DE9F041DE
:1045600004464FF0000800F055FB4948006808B9C0
:10457000FFF766FC47480068204000286BD1D4B1A3
:10458000083404F00700B0B104F00700C0F10800DF
:10459000044404F0070008B9012000E0002050B9ED
:1045A00000BF402080F31188BFF34F8FBFF36F8FA0
:1045B00000BF00BFFEE7002C4DD0374800688442A2
:1045C00049D8364E3046056801E02E462D686868A9
:1045D000A04202D228680028F7D12D480068854201
:1045E00039D0306800F10808286830606868001B1E
:1045F000102819D92F1907F0070008B9012000E089
:10460000002050B900BF402080F31188BFF34F8FC6
:10461000BFF36F8F00BF00BFFEE76868001B7860C4
:104620006C603846FFF7FAFC1B4968680968081A8D
:10463000194908600846006819490968884203D288
:1046400015480068164908601249686809680843F7
:1046500068600020286000F0FDFFB8F1000F01D174
:1046600000F04AF808F0070008B9012000E0002037
:1046700050B900BF402080F31188BFF34F8FBFF3C4
:104680006F8F00BF00BFFEE74046BDE8F08100002D
:1046900078000020840000207C00002070000020B2
:1046A00080000020001F4FF080730360001F21F086
:1046B00001030360001F054B036014380260001FF4
:1046C0006FF002030360203870470000714400005F
:1046D00001460A69D1E901309860D1E901035860C7
:1046E0005068884201D188685060002008611068D5
:1046F000401E10601068704710B54D210148FDF74D
:104700006CFE10BD0000014070B504460D46462108
:104710000148FDF762FE70BD0000014000F1080194
:1047200041604FF0FF31816000F10801C16001611B
:1047300000210160704700210161704710B50246F9
:104740000B685C1C0CB9106907E002F1080000E07E
:104750004068446824689C42FAD944684C604C68BC
:10476000A160886041600A611468641C146010BD17
:1047700042684A6093688B609368596091600861F1
:1047800003685B1C0360704700BF402080F3118802
:10479000BFF34F8FBFF36F8F00BF0E480068401C00
:1047A0000C49086008460068012812D10A480068D0
:1047B000C0B208B9012000E0002050B900BF40207D
:1047C00080F31188BFF34F8FBFF36F8F00BF00BF1F
:1047D000FEE770476400002004ED00E00D4800682B
:1047E00050B900BF402080F31188BFF34F8FBFF353
:1047F0006F8F00BF00BFFEE706480068401E0549F6
:1048000008600846006820B9002080F3118800BFC6
:1048100000BF70476400002070B506463546002E84
:104820003FD0083D2C461F4960680968084008B120
:10483000012000E0002050B900BF402080F3118823
:10484000BFF34F8FBFF36F8F00BF00BFFEE720683D
:1048500008B9012000E0002050B900BF402080F3DB
:104860001188BFF34F8FBFF36F8F00BF00BFFEE70C
:104870000C4960680968084098B1206888B90949FE
:10488000606809688843606000F0C4F906496068A0
:1048900009680844044908602046FFF7BFFB00F0A0
:1048A000D9FE70BD840000207C00002000204FF065
:1048B000E02108618861024848610720086170476B
:1048C000BFD4010070B5FBF759FD0446102C16D378
:1048D00004F1E02090F8F05315480078854201DBA0
:1048E000012000E0002050B900BF402080F3118873
:1048F000BFF34F8FBFF36F8F00BF00BFFEE70D48C0
:10490000006800F4E0600C490968884201D8012081
:1049100000E0002050B900BF402080F31188BFF3B1
:104920004F8FBFF36F8F00BF00BFFEE770BD000069
:10493000680000200CED00E06C0000200246002022
:104940000BE0084B53F8303033B9064B43F83010C6
:1049500003EBC0035A6002E0401C0A28F1D300BFF9
:1049600070470000DC0A00202DE9F04105460E46A4
:1049700017462C46FFF708FF94F94400401C10B975
:10498000002084F8440094F94500401C10B9002030
:1049900084F84500FFF722FFA06B28B93A4631465C
:1049A00004F1240000F0CCF82046FFF78EFDBDE8AE
:1049B000F081000070B504460025D4B112480068AB
:1049C00008B9012000E0002050B900BF402080F36A
:1049D0001188BFF34F8FBFF36F8F00BF00BFFEE79B
:1049E00000F018F900212046FFF7D6F800F032FE5B
:1049F00005463DB94FF0805004490860BFF34F8F22
:104A0000BFF36F8F70BD00004C00002004ED00E08C
:104A10002DE9F04704460F464FF0000954B900BF96
:104A2000402080F31188BFF34F8FBFF36F8F00BF1B
:104A300000BFFEE70FB1012000E0002050B900BF29
:104A4000402080F31188BFF34F8FBFF36F8F00BFFB
:104A500000BFFEE72048006808B9012000E0002000
:104A600050B900BF402080F31188BFF34F8FBFF3D0
:104A70006F8F00BF00BFFEE700F0CCF81748066854
:104A80002068C5192068B04207D92068A8420BD910
:104A9000B54209D94FF0010906E02068A84201D8C3
:104AA000B54201D94FF001092560B9F1000F03D0DB
:104AB000A81B0021FFF770F800F0CCFD8046B8F18C
:104AC000000F07D14FF0805005490860BFF34F8FAA
:104AD000BFF36F8FBDE8F0874C0000202800002056
:104AE00004ED00E003490968016003490968416079
:104AF000704700003C0000202800002001200149F0
:104B0000086070473800002070B504460D4654B95F
:104B100000BF402080F31188BFF34F8FBFF36F8F2A
:104B200000BF00BFFEE70548016818312046FFF7C7
:104B300005FE01212846FFF72FF870BD1400002064
:104B400070B505460E46144655B900BF402080F3A7
:104B50001188BFF34F8FBFF36F8F00BF00BFFEE719
:104B60000648016818312846FFF702FE0CB14FF0E5
:104B7000FF3621463046FFF70FF870BD14000020C5
:104B80001CB51D4800210B468022CDE900101BA159
:104B90001C4800F02BFC0446012C02D100F0DCFD87
:104BA0000446012C15D100BF402080F31188BFF3CB
:104BB0004F8FBFF36F8F00BF4FF0FF301249086077
:104BC00001201249086000201149086000F080F8B7
:104BD00010E0601C08B1012000E0002050B900BFC7
:104BE000402080F31188BFF34F8FBFF36F8F00BF5A
:104BF00000BFFEE71CBD00004800002049444C45B2
:104C000000000000BD3E00004400002030000020F5
:104C10002800002002480068401C014908607047D5
:104C20004C00002010B52548006818B10120244927
:104C3000086042E0002022490860224800680068BD
:104C400020490968096B884205D81E48016834313B
:104C50000068FFF759FD1C4801680CE051B900BF1E
:104C6000402080F31188BFF34F8FBFF36F8F00BFD9
:104C700000BFFEE7491E01EB8100144A52F82000F4
:104C800008B9012000E000200028E7D101EB8102F3
:104C90000E4B03EB820042685268426000F108024A
:104CA0004368934202D14268526842604268D268C7
:104CB000044B1A600448016000BF10BD4C00002086
:104CC00038000020140000202C0000202C0B0020B5
:104CD0001CB5524800685249884201D0012000E0CA
:104CE000002050B900BF402080F31188BFF34F8FE0
:104CF000BFF36F8F00BF00BFFEE748480068484918
:104D0000491E884201D0012000E0002050B900BFB8
:104D1000402080F31188BFF34F8FBFF36F8F00BF28
:104D200000BFFEE73F49084600780190FF200A4691
:104D300010700846007800909DF8000000F0E00038
:104D40009DF80020904201D1012000E0002050B9E0
:104D500000BF402080F31188BFF34F8FBFF36F8FE8
:104D600000BF00BFFEE79DF8000000F040002E4AA3
:104D7000107007202D4A106009E02C480068401E82
:104D80002A4A10609DF800004006000E00909DF831
:104D9000000000F080008028EFD024480068C0F1B7
:104DA0000700032801D1012000E0002050B900BF16
:104DB000402080F31188BFF34F8FBFF36F8F00BF88
:104DC00000BFFEE7194800680002184A106010464C
:104DD000008800F4E0601060124A019810700F48DB
:104DE0002030006840F460000C492031086008461B
:104DF000006840F060400860FFF758FD00200C4953
:104E00000860FBF783FA0B48006840F0404009490E
:104E10000860FBF767FA00201CBD000000ED00E011
:104E200071C20F4100E400E0680000206C00002027
:104E30006400002034EF00E02DE9F84305460E46FB
:104E400090460DB1012000E0002050B900BF402085
:104E500080F31188BFF34F8FBFF36F8F00BF00BF88
:104E6000FEE70EB9002701E005FB06F707F14C004D
:104E7000FFF774FB044644B104F14C0943464A462B
:104E8000314628460094FFF72DF82046BDE8F88308
:104E900070B505460E462C4654B900BF402080F33D
:104EA0001188BFF34F8FBFF36F8F00BF00BFFEE7C6
:104EB000FFF76AFCD4E90F12206801FB0200606072
:104EC0000020A0632068A060E06B401E226C216877
:104ED00000FB0210E060FF2084F8440084F84500E5
:104EE0009EB9206908B9012000E00020A8B904F1AA
:104EF000100000F063FB80B14FF08050094908605A
:104F0000BFF34F8FBFF36F8F07E004F11000FFF77F
:104F100005FC04F12400FFF701FCFFF75FFC012012
:104F200070BD000004ED00E02DE9FF4383B00646AC
:104F300088461D464FF00009344654B900BF402052
:104F400080F31188BFF34F8FBFF36F8F00BF00BF97
:104F5000FEE7B8F1000F01D1206C08B9012000E094
:104F6000002050B900BF402080F31188BFF34F8F5D
:104F7000BFF36F8F00BF00BFFEE7022D02D1E06BD1
:104F8000012801D1012000E0002050B900BF4020DD
:104F900080F31188BFF34F8FBFF36F8F00BF00BF47
:104FA000FEE700F053FA08B9059808B9012000E0BF
:104FB000002050B900BF402080F31188BFF34F8F0D
:104FC000BFF36F8F00BF00BFFEE700BFFFF7DCFB42
:104FD000A06BE16B884201D3022D38D12A464146AD
:104FE0002046FEF7DAFE0746A06C68B12946204647
:104FF000FFF790F828B34FF080503C490860BFF3AA
:105000004F8FBFF36F8F1CE0606A08B9012000E08A
:10501000002068B904F1240000F0D0FA88B14FF004
:10502000805032490860BFF34F8FBFF36F8F08E0A5
:105030003FB14FF080502D490860BFF34F8FBFF351
:105040006F8FFFF7CBFB012007B0BDE8F083059819
:1050500018B9FFF7C3FB0020F6E7B9F1000F04D140
:1050600001A8FFF73FFD4FF00109FFF7B7FBFFF77E
:10507000D1FDFFF789FB94F94400401C10B90020D2
:1050800084F8440094F94500401C10B9002084F8CD
:105090004500FFF7A3FB05A901A800F061F9F0B9ED
:1050A0002046FFF728F8A0B104F110000599FFF79A
:1050B0002BFD2046FFF709FA00F0CCFA002885D135
:1050C0004FF0805009490860BFF34F8FBFF36F8FD7
:1050D0007CE72046FFF7F9F900F0BCFA76E72046B6
:1050E000FFF7F3F900F0B6FA0020ADE704ED00E0B9
:1050F0002DE9F05F80468A4615461E46444654B95F
:1051000000BF402080F31188BFF34F8FBFF36F8F34
:1051100000BF00BFFEE7BAF1000F01D1206C08B953
:10512000012000E0002050B900BF402080F311882A
:10513000BFF34F8FBFF36F8F00BF00BFFEE7022E9C
:1051400002D1E06B012801D1012000E0002050B91C
:1051500000BF402080F31188BFF34F8FBFF36F8FE4
:1051600000BF00BFFEE7FFF7ADFB00BF4021EFF33C
:10517000118081F31188BFF34F8FBFF36F8F00BF92
:105180000746A06BE16B884201D3022E2BD194F924
:1051900045B0324651462046FEF7FFFD0BF10100B7
:1051A000C8B9A06C40B131462046FEF7B3FFB8B194
:1051B000B5B10120286013E0606A08B9012000E061
:1051C000002068B904F1240000F0F8F940B13DB1C5
:1051D0000120286004E00BF1010040B284F8450092
:1051E0004FF0010901E04FF0000900BF87F311887B
:1051F00000BF4846BDE8F09F2DE9F74183B0054662
:105200000E464FF000082C4654B900BF402080F3F2
:105210001188BFF34F8FBFF36F8F00BF00BFFEE752
:105220000EB9206C08B9012000E0002050B900BF81
:10523000402080F31188BFF34F8FBFF36F8F00BF03
:1052400000BFFEE700F002F908B9059808B901208F
:1052500000E0002050B900BF402080F31188BFF368
:105260004F8FBFF36F8F00BF00BFFEE700BFFFF798
:105270008BFAA76BF7B131462046FEF779FD781E11
:10528000A063206908B9012000E0002060B904F1A2
:10529000100000F093F938B14FF080502F490860AA
:1052A000BFF34F8FBFF36F8FFFF798FA012006B05F
:1052B000BDE8F081059818B9FFF790FA0020F6E7ED
:1052C000B8F1000F04D101A8FFF70CFC4FF0010862
:1052D000FFF784FAFFF79EFCFFF756FA94F94400B3
:1052E000401C10B9002084F8440094F94500401C8B
:1052F00010B9002084F84500FFF770FA05A901A84D
:1053000000F02EF8F0B92046FEF7E8FEA0B104F157
:1053100024000599FFF7F8FB2046FFF7D6F800F0C8
:1053200099F90028A3D14FF080500C490860BFF3D1
:105330004F8FBFF36F8F9AE72046FFF7C6F800F054
:1053400089F994E72046FFF7C0F800F083F920467A
:10535000FEF7C4FE00288AD00020A8E704ED00E094
:1053600070B505460C4655B900BF402080F3118842
:10537000BFF34F8FBFF36F8F00BF00BFFEE754B97D
:1053800000BF402080F31188BFF34F8FBFF36F8FB2
:1053900000BF00BFFEE7FFF7F7F912480268686830
:1053A000131A2068401C08B9002617E00E49286827
:1053B0000968884204D06868904201D801260DE04F
:1053C0002068984207D92068C01A20602846FFF755
:1053D00089FB002602E0002020600126FFF7FEF98D
:1053E000304670BD280000203C0000202DE9FF4F12
:1053F00085B0804689461746DDE912ABB800FFF755
:10540000ADF8064656B15C20FFF7A8F804460CB18B
:10541000266304E03046FFF7FFF900E000247CB18A
:105420000020CDE900ABCDE902403A46494640466E
:10543000089BFEF76CFD2046FEF7ECFB012501E022
:105440004FF0FF35284609B0BDE8F08F05490968DF
:1054500009B9012005E00449096809B9022000E002
:1054600000207047300000204C00002001490868EF
:1054700070470000280000202DE9F0414FF000089F
:1054800043480068002876D142480068451C4148DE
:10549000056015BB40480068006808B9012000E0BD
:1054A000002050B900BF402080F31188BFF34F8F18
:1054B000BFF36F8F00BF00BFFEE73748076837486C
:1054C0000068354908603548076035480068401C69
:1054D00033490860FEF74CFF00BF32480068854240
:1054E0003BD300BF2C480068006808B9012000E0E9
:1054F000002020B14FF0FF302A4908602CE02648F8
:105500000068C068C4686668B54202D22548066073
:1055100022E0201DFFF7DCF8A06A18B104F11800A2
:10552000FFF7D6F82049E06A0968884202D91E4987
:10553000E06A0860E16A01EB81011C4A02EB81002C
:10554000211DFFF715F91A49E06A0968C96A8842FE
:10555000C8D34FF00108C5E700BF15480068C06A0E
:1055600000EB8000114951F82000012801D94FF0CB
:10557000010805E0FFE70F480068401C0D4908607E
:105580000D48006808B14FF001084046BDE8F081C1
:105590004C00002028000020180000201C000020E3
:1055A0003C000020440000202C0000202C0B002098
:1055B00014000020340000203800002070B506469A
:1055C000F068C46854B900BF402080F31188BFF36D
:1055D0004F8FBFF36F8F00BF00BFFEE704F11800CD
:1055E000FFF776F815480068A0B9201DFFF770F89E
:1055F0001349E06A0968884202D91149E06A0860E3
:10560000E16A01EB81010F4A02EB8100211DFFF7E6
:10561000AFF804E004F118010B48FFF7A9F80B49B3
:10562000E06A0968C96A884204D90125012008494D
:10563000086000E00025284670BD00004C000020F6
:105640002C0000202C0B0020D40D00201400002082
:105650003800002070B5002400263648006850B994
:1056600000BF402080F31188BFF34F8FBFF36F8FCF
:1056700000BF00BFFEE7FFF787F82E480068401E16
:105680002C4908600846006800284ED12A48006866
:1056900000284AD023E02948C068C46804F11800F3
:1056A000FFF716F8201DFFF713F82549E06A09688F
:1056B000884202D92249E06A0860E16A01EB81016F
:1056C000204A02EB8100211DFFF752F81E49E06AD3
:1056D0000968C96A884202D301201C49086017483A
:1056E000006808B9012000E000200028D3D00CB1E8
:1056F000FEF73EFE1648056865B100BFFFF7BCFE29
:1057000010B10120114908606D1E002DF6D1002056
:105710000F4908600D48006838B1012630070D496F
:105720000860BFF34F8FBFF36F8FFFF757F8304616
:1057300070BD00004C00002024000020D40D00208B
:105740002C0000202C0B002014000020380000202A
:105750003400002004ED00E01CB50024FEF7B2FA8E
:105760000E48006858B10E481F2100234FF4807284
:10577000CDE900100BA10D48FFF738FE044654B9DF
:1057800000BF402080F31188BFF34F8FBFF36F8FAE
:1057900000BF00BFFEE720461CBD000058000020EF
:1057A0005C000020546D722053766300B144000009
:1057B0002DE9FE4304460D4616461F46DDF82880B7
:1057C0004FF0000954B900BF402080F31188BFF3A7
:1057D0004F8FBFF36F8F00BF00BFFEE71448006814
:1057E00010B3009501960294062D15DAFFF72EFEF0
:1057F000022808D10023424669460D480068FFF799
:1058000093FB814610E000231A4669460848006869
:10581000FFF78AFB814607E000233A4669460448C1
:105820000068FFF765FC81464846BDE8FE8300003E
:1058300058000020C8FF000001000000345800009C
:105840000200000000000000000000000000000056
:1058500000000000004000401000000000800540F3
:1058600010000000005000401100000000900540B2
:1058700011000000006000401200000000A0054080
:1058800012000000007000401300000000B005404E
:1058900013000000004002401400000000C005405A
:1058A00014000000005002402E00000000D005400F
:1058B0002E000000006002402F00000000E00540C4
:1058C0002F000000007002403000000000F0054092
:1058D0003000000000D003404600000000000640F9
:1058E000460000000010064047000000002006406F
:1058F00048000000003006407F00000000400640E5
:105900008000000000500640840000000060064057
:105910008C000000004000401000000000800540A6
:1059200010000000005000401100000000900540F1
:1059300011000000006000401200000000A00540BF
:1059400012000000007000401300000000B005408D
:1059500013000000004002401400000000C0054099
:1059600014000000005002402E00000000D005404E
:105970002E000000006002402F00000000E0054003
:105980002F000000007002403000000000F00540D1
:105990003000000000D0034043000000000006403B
:1059A00043000000001006404400000000200640B4
:1059B000450000000030064058000000004006404E
:1059C00059000000005006405C00000000600640E6
:1059D00064000000007006406C000000008006407B
:1059E0006D000000009006407F0000000040004075
:1059F00000800540005000400090054000600040DD
:105A000000A005400070004000B00540004002408A
:105A100000C005400050024000D005400060024038
:105A200000E005400070024000F0054000D0034057
:105A3000000006400010064000100640002006400E
:105A4000002006400030064000300640004006407E
:105A500000400640005006400050064000600640EE
:105A6000006006400070064000700640008006405E
:105A700000800640009006400090064000070000AD
:105A80000006000000050000000400000003000004
:105A90000002000000010000000000000000000003
:105AA00018ED00E01CED00E020ED00E000E400E077
:105AB00004E400E008E400E00CE400E010E400E0AE
:105AC00014E400E018E400E01CE400E020E400E05E
:105AD00024E400E028E400E02CE400E030E400E00E
